:020000042000DA
:10000000FC7F0004D5000020DD0000202913002023
:100010000000000000000000000000008D65FFFBF4
:10002000000000000000000000000000E1000020CF
:100030000000000000000000E3000020E5000020B8
:10004000B14F0020EB000020EF000020F300002063
:10005000F7000020FB000020FF000020030100202B
:10006000070100200B0100200F01002013010020D8
:10007000851A00201B0100201F0100202301002001
:10008000270100202B0100202F0100203301002038
:10009000370100203B0100203F01002043010020E8
:1000A000470100204B0100204F0100203525002092
:1000B000152500205B0100205F0100206301002066
:1000C0000348854600F046F900480047397F002084
:1000D000FC7F00042448804724480047FEE7FEE7F1
:1000E000FEE7FEE7FEE72248004722480047224895
:1000F000004722480047224800472248004722483C
:10010000004722480047224800472248004722482B
:10011000004722480047224800472248004722481B
:10012000004722480047224800472248004722480B
:1001300000472248004722480047224800472248FB
:1001400000472248004722480047224800472248EB
:1001500000472248004722480047224800472248DB
:10016000004722480047FEE78D240020C100002000
:1001700067010020A50D00205D1100207D110020E9
:10018000F5170020211800204D18002079180020B4
:10019000B94E0020670100209508002025090020A5
:1001A00067010020DD090020790F0020990F002051
:1001B000B90F0020D90F0020F90F002019100020DE
:1001C000391000205910002067010020670100202D
:1001D00067010020670100206701002067010020FF
:1001E00067010020670100206701002067010020EF
:1001F00030B50B46014600202022012409E00D46BF
:10020000D5409D4205D31D469540491B2546954046
:1002100040191546521E002DF1DC30BD70B500248A
:100220002546002801DA01244042002901DA01258F
:100230004942FFF7DDFFAC4200D04042002C00D025
:10024000494270BDF0B51FB40646002082B0054695
:100250004024019100901BE0019922460F46304650
:1002600000F020F8049A059B801A994110D310469B
:100270001946224600F05EF8361A8F410197224651
:1002800001200021009F00F055F838184D410090E2
:100290002046641E0028DFDC019B00982946324678
:1002A00007B0F0BD10B5202A04DB0846203AD04044
:1002B000002110BD0B46D340D0402024A21A91400B
:1002C0000843194610BD03460B439B0703D009E0C2
:1002D00008C9121F08C0042AFAD203E00B78037081
:1002E000401C491C521EF9D27047D2B201E0027084
:1002F000401C491EFBD270470022F6E710B513469A
:100300000A4604461946FFF7F0FF204610BD0321B8
:10031000001D401E037812021A43491EF9D51046EB
:100320007047034603220870000A491C521EFAD582
:100330001846704710B5202A04DB0146203A914048
:10034000002010BD914020239C1A0346E34019432E
:10035000904010BD064C0125064E05E0E36807CC31
:100360002B430C3C98471034B442F7D3FFF7ACFE54
:1003700068F4002088F4002070B58C180578401CC3
:100380006B075B0F01D10378401C2A1106D102785C
:10039000401C03E006780E70401C491C5B1EF9D11E
:1003A0002B0705D40023521E0DD40B70491CFAE70D
:1003B0000378401CCB1A921C03E01D780D70491C79
:1003C0005B1C521EF9D5A142D8D3002070BD00009D
:1003D00010B5124810210163114800F037F8114C94
:1003E000204601F069FA204600F0F4F9204600F0BA
:1003F00013FA00220121202000F0CEF90021012271
:10040000084600F0C9F900220121104600F0C4F9A5
:10041000054800F01BF80548046010BD00060040C8
:100420000011100000D8B80500141000D805000411
:100430000121044849030162FF2003498830886193
:1004400070470000000200408010004070B500249A
:100450000D4D0E4E21460C224A43D040C3B2002817
:100460000AD00205120F521ED2B21C2B02D09B00E2
:10047000EA5002E0326200E00124491C022901D85E
:10048000002CE8D070BD0000800200400000044055
:10049000020A01218140022A04D29000034A8018F6
:1004A000016270470248416170470000000200404D
:1004B0000000044070B50124124E65063564022820
:1004C00003D000243562204670BD0F4A881812D030
:1004D000D04202D1002202210FE000240B48016823
:1004E0000B4A11404122120611430160FF200B30DC
:1004F000FFF7ACFFE6E700220121262000F04CF9CF
:10050000ECE7000004020040009423FD00050040D9
:10051000FF7FFFC310B50748006A8007800F03D034
:10052000012804D0002010BD00F008F810BD0248DA
:1005300010BD000000000440001BB70010B51948B2
:100540004168002902D10168002903D041680029CF
:1005500003D005E000F0DAF810BD0168012903D0EE
:100560004168002902D004E0002010BD0168022982
:1005700003D04168002903D005E000F0EDF810BD7C
:100580000168032908D04168022908D0406803287F
:10059000EAD10120C00310BD00F0C4F810BD02482C
:1005A000C06810BD800200408C05000410B50D48E5
:1005B000816A00290AD0816A01290AD0816A022948
:1005C0000AD0806A03280AD0002010BDFFF7B6FFCA
:1005D00010BD0548C06810BD00F098F810BD00F0CF
:1005E000A1F810BDC00200408C0500048100114834
:1005F00010B50818016B00290ED0016B01290ED02F
:10060000026B0D49022A0DD0026B032A0CD0006B3D
:1006100004280BD0002010BD00F078F810BD00F0C9
:1006200081F810BDC86810BD486810BD082000F0F2
:1006300005F810BD800200408C05000410B5304A5A
:10064000304CD168030004F06FFD130B0E1215350A
:10065000181A2D304447494B4D4F515355573500CB
:10066000FFF76CFF10BDFFF769FF216810E000F095
:1006700059F810BD00F04AF810BD084610BD2248D8
:10068000826A002A09D0806A012809D00020A16965
:10069000C9B2491CFFF7ACFD10BD00F043F8F6E706
:1006A0000846F4E700F058F810BD206AC043000681
:1006B000000E01D0002010BDFFF778FF010E226A66
:1006C00000021204120EFF3200230132FFF7BAFDBE
:1006D00010BDFFF71FFF10BD506810BD00200CE0DB
:1006E00001200AE0022008E0032006E0042004E0E4
:1006F000052002E0062000E00720FFF777FF10BD8D
:100700008C0500048003004080020040034800691B
:10071000C00601D500207047014870470006004020
:10072000001BB70008480069C00603D407480168E9
:10073000490001D4002070470068400401D50448F6
:100740007047044870470000000600400005004064
:1007500000D8B805006CDC0210B50B480069C00277
:1007600001D5002010BD094881688068C906C90EFE
:10077000491C49008005064AC00E105C054A5043DA
:10078000FFF736FD10BD00000006004000050040E8
:1007900038F3002050C30000074B8000002A02D02D
:1007A000012252071A50002902D0491E19507047E1
:1007B00001218907FAE7000000030040044A11689C
:1007C0000F231B0399430003084310607047000088
:1007D000000400400C4910B5884201D8002003E015
:1007E0000A49884203D80120FFF7E8FF10BD0849F5
:1007F000884201D80220F7E70649884201D8032041
:10080000F2E70420F0E70000001BB70080C3C90135
:100810000087930340FF100570B5194D0446EE00A4
:10082000A84206D0A800844203D0B44201D00120DF
:1008300070BD042001F036F8124908688A05C0012D
:10084000C00FAC4218D9104BB44208D10F4A000671
:10085000126B1A4002430E4802430A600AE00B4C36
:100860000006403464681C4004430120C00720187F
:1008700010430860002070BD08689043F9E700004D
:10088000001BB70000050040FF3FFF00000400010F
:10089000004000C010B5002000F0DAF810BD0000E4
:1008A00010B51A4A00211A4800F05CF9194841684D
:1008B000491C4160184CE079012807D107F052F833
:1008C00016490888401C088004F00AFE1448817903
:1008D00042790902401C114303D0491E0171090AE3
:1008E00041710F4801780907090F02290DD3407C97
:1008F000C0070AD0E079002807D109480222203039
:10090000C1791143C17107F02DF810BDCC0C000462
:100910000080004094030004660D0004600300049E
:100920003E0D000410B5012000F092F810BD00004B
:1009300070B5274D01202860264E274C3078E1798C
:100940000C2814D006DC002834D0082809D0092847
:1009500030D108E00D281ED010281FD0112829D131
:100960001FE0FD201BE0012016E0E17122E04808B5
:100970004000E0711848203800788106890F02296C
:1009800001D1400601D4002200E00122072101200C
:1009900006F00AFD0EE004200143E6E7FB200140DB
:1009A000E3E701220721104606F0FEFCE079102162
:1009B0000843E0713078401CC0B23070132805D372
:1009C0000020A860686840084000686070BD0000B2
:1009D00000900040940300045E0D000410B5032055
:1009E00000F036F810BD000010B5044600F064F8C1
:1009F0006168490849006160114A4100515A012368
:100A00000A0A022A06D21C468C4091000D4A891817
:100A10000C6403E01A468A400B498A610849091FA1
:100A20000856014680310AD0002808DBC006C00EF7
:100A3000834006480360BFF34F8FBFF36F8F10BD35
:100A4000C0F30020000200400000044080E100E00C
:100A5000F8B50146860010488059056805600F48C2
:100A60000F4F405C00280FD000240120A040054219
:100A700006D0B859A1004158002901D0284688471E
:100A8000641C062CF1D9F8BDB85901680029FAD0C8
:100A900028468847F8BD0000C8F30020B4050004CC
:100AA000A831000410B5002804D000210170417065
:100AB000416010BDC046C04610B503460321074A39
:100AC0000020840014599C4202D0401C8842F8D374
:100AD000884201D3C046C04610BD0000C8F30020C4
:100AE00070B50C0005460ED0FFF7E6FF1249400036
:100AF000095A01200A0A022A07D2884091000F4AA7
:100B00008918086204E0C046C04688400C49486124
:100B10002846FFF7D1FF084980001431085800F03B
:100B20008BFF207861788007800F8907090F0843C1
:100B300028676068E86070BDC0F3002000020040D4
:100B40000000044070B515460C46FFF7B5FF034A98
:100B50008100545002490D5470BD0000A8310004BA
:100B6000B4050004F8B514460E460546FFF7A4FF89
:100B7000696902467000301807238340994323793E
:100B8000471CBB400B436179871CB9401943237A4A
:100B900083400B436B61E96B7000302383409943C2
:100BA000A379001D83400B430120B040E1798343CA
:100BB000B1401943E963B3005B192168996128606A
:100BC000207A002803D00248805600F0B1F9F8BD21
:100BD000BCF3002070B5164C0A21E068FFF708FB53
:100BE0000146206980684B2292015043FFF700FBC9
:100BF000A060A2681049FF200E4E00048B13C503AD
:100C0000B24205D90A680C6882430440E01A09E040
:100C1000A268084C603CA24209D20A680C68824370
:100C20000440E0180002000A02432A430A6070BD33
:100C3000DC050004B0BB00000005004010B5322008
:100C400001F02CFC00220721012006F0ADFB322030
:100C500001F024FC1D21002006F07EFB04461E212D
:100C6000002006F079FB400004430821002006F034
:100C700073FB800004431621002006F06DFBC001C9
:100C800004430021084606F067FBC0000443152119
:100C9000002006F061FB000104431221002006F051
:100CA0005BFB400104431321002006F055FB80014B
:100CB00004430121002006F04FFB000204430321FE
:100CC000012006F049FB400204430821012006F000
:100CD00043FB80020443A00759D4642001F0DEFBEB
:100CE0001D21002006F038FB04461E21002006F0DE
:100CF00033FB400004430821002006F02DFB800058
:100D000004431621002006F027FBC0010443002104
:100D1000084606F021FBC00004431521002006F020
:100D20001BFB000104431221002006F015FB4001CB
:100D300004431321002006F00FFB8001044301212E
:100D4000002006F009FB000204430321012006F005
:100D500003FB400204430821012006F0FDFA800253
:100D6000044301220721104606F01EFBA0070ED403
:100D70000749C879002802D0012802D003E00120E9
:100D800000E00020C871002102200AF067FD10BDBC
:100D9000660D0004024AD160106100207047000017
:100DA000DC05000410B5024800F022F810BD000078
:100DB0000020084010B50146064A00208300D358A1
:100DC0008B4202D0401CF9D001E0002801D0C0467F
:100DD000C04610BD0CF4002070B500252C46FFF76E
:100DE000E9FF01E0641C12358442FBD3284670BD44
:100DF000FEB5FFF7F1FF0026019001983018810041
:100E00001E484458002C34D0217B5C234809CA0674
:100E10005843A168D20E009058300B5801259540D8
:100E20002B4208D00D502768002F04D00023012248
:100E300020466168B8470098A16860300A582A4285
:100E400008D00D502768002F04D001231A462046F1
:100E50006168B8470098A16840300A582A4208D013
:100E60000D502568002D04D0022300222046616821
:100E7000A847761C122EC0D3FEBD0000203300040C
:100E8000F8B505461248C90008184168C068090746
:100E90000607104F360F880EC019046864212046DB
:100EA0006843FFF7A5F9642D00D3A01C0A4A116816
:100EB0005168042319435160B10080B2CC192060FD
:100EC000064C091908601068506898435060F8BDD6
:100ED00000530840005108400050084000520840AC
:100EE00010B50146803103D004F050F9002010BD48
:100EF000012010BD10B50146002201E02039521C2E
:100F00002029FBD201231C468C409100064A8918F7
:100F10000C620146803106D0002804DBC006C00EFA
:100F200083400248036010BD8006004000E100E0FD
:100F30000146803109D0002805DBC106C90E012019
:100F40008840034908600020704701207047000076
:100F500000E100E00146803109D0002805DBC10630
:100F6000C90E012088400349086000207047012015
:100F70007047000000E100E010B505480268002A53
:100F800004D0203001680348904710BDC046C046D9
:100F9000583100040060084010B505484268002A36
:100FA00004D0203041680348904710BDC046C04679
:100FB000583100040070084010B505488268002AC6
:100FC00004D0203081680348904710BDC046C04619
:100FD000583100040080084010B50548C268002A56
:100FE00004D02030C1680348904710BDC046C046B9
:100FF000583100040090084010B505480269002AE5
:1010000004D0203001690348904710BDC046C04657
:101010005831000400A0084010B505484269002A74
:1010200004D0203041690348904710BDC046C046F7
:10103000583100040060094010B505488269002A53
:1010400004D0203081690348904710BDC046C04697
:10105000583100040070094010B50548C269002AE3
:1010600004D02030C1690348904710BDC046C04637
:10107000583100040080094010B50146054A00209F
:101080008300D3588B4204D0401C0828F8DBC046AC
:10109000C04610BD58F3002070B50C460546FFF75A
:1010A000EBFF002801DA042070BD0B494000085A0C
:1010B0000122010A022905D282408800074940180E
:1010C000026202E082400648426100222146284630
:1010D00000F016F870BD000078F300200002004018
:1010E0000000044070B514460D46FFF7C5FF0349E4
:1010F00080000A46203214500D5070BD5831000453
:101100001F2330B5DB01C018002913D04B1E032B61
:1011100009D8846FCB1C01259D402C4201D00123AE
:1011200006E0002304E005290ED1836F1B06DB0FC8
:10113000002B09D0836F1B0708D5836F5B075B0FFC
:101140008B4203D0012030BD032030BD002A01D0E6
:10115000082211438167002030BD00000548016866
:1011600001221143016004480068002800D00047B4
:101170007047000000200040B805000405480168E1
:1011800001221143016004484068002800D0004754
:101190007047000000300040B805000489000818BE
:1011A000026203647047000070B5054600F066F8FF
:1011B0000446284600F022F80C4A0020A1005050B6
:1011C0000B48405800F038FC094960000E39085AB5
:1011D0000122010A022905D28240880005494018EF
:1011E000026470BD82400448826170BDB80500048D
:1011F00020F40020000200400000044070B50446C6
:1012000000F03CF80C4B012219560D468035002D9C
:101210000BD0002909DBCD06ED0E1146A940074D84
:101220002960BFF34F8FBFF36F8F21681143216097
:10123000185603F093FF70BD10F4002080E100E029
:1012400070B5064600F01AF80446306801252843B8
:101250003060084E305703F081FF3057014680312F
:1012600006D0002804DBC006C00E85400248056099
:1012700070BD000010F4002000E100E010B5014650
:10128000074A00208300D3588B4203D0401C022819
:10129000F8D301E0022801D3C046C04610BD0000CB
:1012A00018F4002010B5FFF7E9FF0A4B0021820077
:1012B000995009494000085A0122010A022905D221
:1012C0008240880005494018026210BD82400448EF
:1012D000426110BDB805000412F400200002004075
:1012E00000000440F8B51C4615460E460746FFF7B9
:1012F000C5FFF107890FEA07520F11433960024910
:1013000080000C50F8BD0000B805000410B55A2A42
:1013100007D20AF069FA002801D0012010BD02208E
:1013200010BD002010BD000002490148C860704790
:101330000400FA0500ED00E010B50146054A002062
:101340008300D3588B4204D0401C0828F8DBC046E9
:10135000C04610BDE8F3002070B516460C461822B2
:10136000A01831460546FEF7AEFF002262606869AC
:10137000A06029692261E1602978CA0712490DD06D
:10138000002805D0A07F002804D0012804D00AE05E
:10139000062015E0022013E0032011E0E868002891
:1013A0000DD0042801D9084670BDB168F06802E08C
:1013B00022181175090A401EFAD5E8682061052037
:1013C0002070002070BD00002B0A00000122D20214
:1013D00080180029016804D0C906C90E01221143F2
:1013E00001E01E22114001607047000001210170E0
:1013F000024941600021017270470000A08601008F
:1014000070B50C46154606460321FFF745FE2178C8
:101410003046FFF7DBFF2A463046616800F001F8EE
:1014200070BDF7B5002582B00924039E0498664379
:101430007100FEF7DDFE01221204904200D9104631
:10144000464304997300C91AA94201D3002D02D161
:1014500027460D460090002904D0904202D2641E17
:10146000022CE2D200980121401E82B20298C902E9
:1014700040184261390120394906BF1E490E7A07DA
:10148000520F1143416205B0F0BD0000F8B51E4691
:1014900017460C00054619D038212046FEF72CFFD0
:1014A0002846FFF749FF009027632246084928464F
:1014B0006663FFF717FE01215120C9026918C86051
:1014C000044900980856FFF745FDF8BDC046C046E0
:1014D000D9140020E0F30020F8B50C00064613D024
:1014E0006A4600F031F802466846007810430BD097
:1014F00001215120C9027118C860256B002D03D04D
:1015000021463046636BA847F8BD000010B500299E
:1015100004D0002A02D0D368042B01D9C046C046AB
:101520000B78002B01D0074810BD0124E4025123A1
:101530000419E360FFF710FF502161605121A160A1
:1015400010BD0000280A0000F7B5029B00221A70A7
:101550000C4601221834D20282185068C30603D503
:10156000102050604848FEBD430604D5402050601E
:10157000A3200001FEBDC30710D00007450F032DB7
:101580000FD0042D0DD00F78002001263B0003F072
:10159000CBFD08582F4856580F6E71583A48401FD7
:1015A000FEBD04201062072008703748C01EFEBD33
:1015B0000B69002B04D0A3885B0093620E7012E0CD
:1015C000A379002BA38807D05B005B1C93628B6818
:1015D000002B0BD0032305E05B0093628B68002B8C
:1015E00004D002230B7002211162FEBD0623F9E72D
:1015F000022D26D10D694B6A5B1B5B181B7D936224
:1016000016620A69521E0A61EFD18A68002A06D062
:10161000A279012A01D0022233E0052231E006221C
:101620002FE0022D0DD1CB685C1CCC601B7893623F
:1016300016628A68521E8A6015D1062212E0012DB8
:1016400002D01148001DFEBD946ACB685D1CCD60C0
:101650001C708B685B1E8B6001D0166203E0042354
:10166000136207220A704A68521C4A60FEBD237842
:101670005B0703D5029A1670002202E0042313626E
:1016800007220A70FEBD00002D0A000010B58AB0C6
:101690003324009401AC07C47D21C9001846FEF72D
:1016A000A7FD049005A9684605F040F90AB010BDF1
:1016B00000B58BB002913B2301907D210093C900BE
:1016C0001046FEF795FD039005A9684605F06EF9F2
:1016D0000BB000BD10B58AB03324009401AC07C430
:1016E0007D21C9001846FEF783FD049005A96846D0
:1016F0000DF078F805980CF0EBFD0AB010BD00B5C0
:101700008BB002913B2301907D210093C9001046CC
:10171000FEF76EFD039005A968460DF063F8059885
:101720000CF0D6FD0BB000BD00B58BB0322202919B
:101730000190009205A9684605F01CFF05980CF081
:10174000C7FD0BB000BDC901081891004350704798
:10175000C9010818910043507047000010B50028D7
:1017600011D000F017F80020084A01468300401C01
:10177000D1500428FAD3122000F05EF90121044868
:101780008904016410BDC046C046000068330004EF
:1017900000020040F8B505001CD000240E4F0126C1
:1017A0003857014680310BD0002809DBC106C90E2D
:1017B0003046884009490860BFF34F8FBFF36F8FF1
:1017C0003046A0406862385703F0D4FC641C042CF7
:1017D000E6D3F8BDC046C04628F4002080E100E012
:1017E00001460348806A000E01D0CA6ACA62704787
:1017F0000040004010B5084C2046FFF7F1FF0146BD
:1018000006480268002A01D0002090472068C007DF
:1018100001D10120606210BD004000406833000427
:1018200010B5084C2046FFF7DBFF0146064842682A
:10183000002A01D0012090472068800701D40220AF
:10184000606210BD004000406833000410B5084CD1
:101850002046FFF7C5FF014606488268002A01D0EE
:10186000022090472068400701D40420606210BD28
:10187000004000406833000410B5084C2046FFF7D4
:10188000AFFF01460648C268002A01D003209047F6
:101890002068000701D40820606210BD00400040AD
:1018A0006833000401218140000A024A8000801848
:1018B000016370470006004010B504463F484049A8
:1018C00008630B21012000F08DF80B21022000F0AD
:1018D00089F80B21042000F085F83A48844208D8A2
:1018E0000621002000F07EF80621032000F07AF89F
:1018F00063E03548844208D80721002000F072F8E0
:101900000721032000F06EF857E03048844208D8E1
:101910000821002000F066F80821032000F062F89A
:101920004BE02B48844208D80921002000F05AF8E7
:101930000921032000F056F83FE02648844208D8E9
:101940000A21002000F04EF80A21032000F04AF896
:1019500033E02148844208D80B21002000F042F8EF
:101960000B21032000F03EF827E01C48844208D8F1
:101970000B21002000F036F80B21032000F032F894
:101980001BE0174884420CD80C21002000F02AF8F4
:101990000C21022000F026F80C21032000F022F890
:1019A0000BE00D21002000F01DF80D21022000F0B9
:1019B00019F80D21032000F015F810BD04000038BF
:1019C00000060040001BB70000366E0100512502E2
:1019D000006CDC020087930300A24A0400BD0105ED
:1019E00000D8B80510B50A07120F8300014C1B1967
:1019F0001A6010BD00000240010C82B2012010B537
:101A00009040202A01D3C046C046022906D3084987
:101A100088600B6802469A43FBD010BD8A000549D6
:101A2000511808640B6802469A43FBD010BD0000B1
:101A3000000004400001004010B5044600F004F826
:101A40002046FFF7D9FF10BD010C82B2012010B56E
:101A50009040202A01D3C046C046022905D3074939
:101A600048600A680242FCD010BD8A00044951183F
:101A700008620A680242FCD010BD00000000044069
:101A80000001004002490148C96808470050084069
:101A9000C8050004F0B58C04A50F3B4C2468A6468D
:101AA0000A2C16D21B079E0D374B03241B682402F9
:101AB000DB001B181C19022D0DD0059B97B2DB070C
:101AC000DB0E9C461304012D2F4DAA6806D00A2A6E
:101AD00028D30120F0BD0E43666047E00A2AF8D201
:101AE00015072D0F0D430168059EC907C90F491E33
:101AF000314209D191000818FF2101310F50FF3008
:101B0000FF30023007600AE061460D43910008187B
:101B1000FF2101310B50FF30FF30023003601A48C3
:101B2000656021E015072D0F354329430568EE0751
:101B3000F60F059D761E2E4209D193001818FF233B
:101B400001331F50FF30FF30023007600AE0654666
:101B5000294395002818FF2501352B50FF30FF3011
:101B60000230036008486160521C8260064901200F
:101B70000A79904020600698724602607046401CC8
:101B800008600020F0BD0000C8050004F8B50B484F
:101B9000446B066B0A4F264000250AE0E00704D09C
:101BA000A8003858002800D0804764086D1C0A2D12
:101BB00001DA002CF2D101484663F8BDC05008405C
:101BC0007833000410B504000DD00821FEF794FB13
:101BD0000120207000206070A070E07020716071A2
:101BE000A071E07110BDC046C046000010B50346AC
:101BF0000121074A0020840014599C4202D0401C55
:101C00008842F8D3884201D3C046C04610BD0000C8
:101C100038F4002070B50C0005460ED0FFF7E6FF43
:101C200027494000085A0122010A022907D28240AE
:101C3000880024494018026204E0C046C046824041
:101C4000214842612846FFF7D1FF1D498000083135
:101C50000858FFF7F1FEA078617800078907400E69
:101C6000490F08432178C907C90F08432860E07865
:101C70006179C007C00E490108430C3068602078C4
:101C800000280BD1686821790322C907C90A0843D3
:101C9000A17949059204114308436860E0792865F9
:101CA00000210A4B0A4A196059600846996084006D
:101CB000401C11510A28FAD30648D860002070BD94
:101CC00034F400200002004000000440C805000475
:101CD000783300048D1B002010B5082901D3C046BD
:101CE000C046C900091805200002081841680123F0
:101CF00093401943416010BD10B5082901D3C04677
:101D0000C046C9000918052000020818016801230F
:101D100093401943016010BDF0B585B004460A98A0
:101D20001E4617460D0006D0002804D0002E02D013
:101D30002978082901D3C046C0466168C904090E44
:101D4000491CFEF755FA00210291039143490968A5
:101D5000891C0A290BD8A978002908D021680122FA
:101D600011432160012F05D0002F53D006E0012040
:101D700005B0F0BD61681022114361607100FEF78B
:101D800037FA0646A878009070436421FEF730FACF
:101D900004900098642801D3B01C049000203246BF
:101DA00002A90126034636030191009031462046E0
:101DB000FFF770FE002003A9034601910090314611
:101DC0002046049AFFF766FE02982168A168012662
:101DD0003246824092B21143A1600B990860687844
:101DE0000128206D2978324619D08A401043206599
:101DF0002978002F28D02046039AFFF77DFF616DD8
:101E00002878032240008240914386400E43666555
:101E10000020ADE73146FEF7EBF9401EB1E78A40FE
:101E2000904320652978002F04D02046039AFFF7BD
:101E300053FFE4E72046029AFFF75EFF2978204629
:101E4000039AFFF749FFE3E72046029AFFF744FFB2
:101E500029782046039AFFF74FFFD9E7C805000409
:101E6000F0B501261D4885B0042505621C48FFF722
:101E7000E3FD0120FEF7E2FB044603A8FFF7A2FE04
:101E8000184F03A93846FFF7C5FE69464E72642015
:101E900088720D721448154D01902B46002202A93C
:101EA00000943846FFF738FF0520694608720E484F
:101EB0002B46001D0190002202A900943846FFF72E
:101EC0002BFF094C0020241F6168FEF7D9FF00207A
:101ED000A168FEF7D5FF05B0F0BD00000402004088
:101EE0000200010000500840F8030004204E0000EA
:101EF00010B51B48807AC00731D00CF02BF9194976
:101F000000238B6001220A604A68012422434A6050
:101F1000002824D0124C1448203403700221E171AF
:101F20004168491C416005F01DFD03F0D9FA06F037
:101F300041F92079401C20710C480078400703D1FA
:101F40000B480188491C01800548817942790902C2
:101F5000401C114303D0491E0171090A417110BD93
:101F60003E0D000400900040940300043003000480
:101F7000600300040122920280180029016802D047
:101F80000122114301E04908490001607047000047
:101F900010B50146054A00208300D3588B4204D077
:101FA000401C0828F8DBC046C04610BD90F3002056
:101FB00010B5002813D000210170012242708270F8
:101FC000C2700171074A8260072202734173017473
:101FD0004174C1818174C1740175417510BDC046E1
:101FE000C046000000093D00F8B516460C46050045
:101FF00070D0002C6ED0002E6CD00221FFF74CF870
:10200000002867D132462846A16800F06BF8002806
:102010005ED12846FFF7BCFF00285BDB0121890267
:102020006A1811682C4B1940E378DB07DB0E0B4371
:10203000A178C9078E0E21791E43C907090F3143C4
:102040000423194323780F26DB071B0E0B43E1897A
:1020500036023140194311602049237B40000B5464
:10206000637B401843700720400229180868032347
:102070001B041843086008680323184308608E682F
:102080001748677C0640207C3F070007000D3F0B88
:102090003843304318438860214612311AD00878FB
:1020A0004B7800071B07000F1B0E18438B78C9786D
:1020B0001B071B0D09071843090C08435060FF213B
:1020C000284600F03FF961782846FFF753FF0020CB
:1020D000F8BDFFE7C046C04642F0FFFF983100045C
:1020E000FFF0F0FF10B504000CD000290AD0002A40
:1020F00008D01046FEF77CF80A49401E884203D9F2
:10210000094810BDC046C0460121890261184A6ACB
:10211000120C12044A624A6A80B202434A620020E8
:1021200010BD0000FFFF0000E3150000FFB581B007
:1021300017460C46060005D0002C03D0FFF728FFF9
:10214000050001D5C046C04630212046FEF7D4F830
:1021500001208002301800682246400701D5164948
:1021600000E016493046FEF7BDFF154B69005A5C8A
:10217000204620300271C91849784171072149026F
:1021800071188A681205120F027389680903090F12
:102190004173E761049820620A4840570146803144
:1021A00007D0002805DBC106C90E0120884006497A
:1021B0000860002005B0F0BDCD210020592300208B
:1021C0009831000488F3002000E100E0F8B50C46E7
:1021D00000280CD0002C0AD0A16807220F27520239
:1021E00026463F0420368518002908D101E0C04664
:1021F000C046E168002902D12169002947D0214663
:1022000000F0AEF8A0680421002805D1E06800289D
:1022100002D12069002807D0E0683279D208D04086
:10222000A268002A09D00CE0A8680F22120290438D
:10223000A860286908432861F8BD2269824200D35A
:10224000696100280DD0A9680903090F491C814262
:10225000F2D9A968401E0007B943000B0143A960E9
:10226000F8BDA0680028FBD120690028F8D02169BA
:10227000A8680003000F401C8142F1D2A8682169C0
:10228000B843491E0907090B0843A860F8BD0C2193
:102290006961A968727BB9431207120B1143327B43
:1022A0001207120D1143A9600449A161E569002DCF
:1022B000ECD0236AA2692146A847F8BDE1150000C9
:1022C00070B5040010D000290ED0002A0CD013687D
:1022D000002B02D15068002806D02420405C07283B
:1022E00004D9107BC00701D0C046C0468D69AF201D
:1022F0004001854224D00B6053684B601368002B6B
:1023000000D0D3688B605368002B00D0D368CB60BB
:10231000D3684B6100230B6192688A628861072051
:102320004002201801680322120411430160416831
:1023300003221143416001690C2211430161002015
:1023400070BD000010B50C46FFF722FE01490C5489
:1023500010BD0000AC05000410B5FFF737FF10BD3D
:10236000F8B50C460546FFF713FE8446002D4CD009
:10237000002C4AD02068002802D16068002844D090
:10238000072040022B1818681821400808402246F0
:102390008646203250790121103081400F20000400
:1023A0008843117909070D090543A06A8102C90F05
:1023B0004905C0022943C00F00055F6800267F065B
:1023C00019D51D6BE668002E11D06668771C676012
:1023D0003570E668761EE6601679072E07D96668BE
:1023E0002D0A771C67603570E5686D1EE56025690C
:1023F0006D1E256101265F68BF0641D527697745B7
:102400003ED2A768002F0AD101E0C046C046276926
:102410001579ED087F1CAF40E568AF4230D8A5685C
:10242000002D16D02668771C27603678A7687F1E97
:10243000A7601779072F08D927687D1C25603F788A
:102440003F023E43A7687F1EA760A768002F0FD0FA
:102450000FE00D4F6646BE5D65467F5D36023E432A
:1024600027691579ED087F1CAF40E568AF4200D1C0
:1024700001430D4635431D6225696D1C25619CE7AE
:10248000002E9AD1F8BD0000AC05000402490148B5
:10249000886070470000002000ED00E070B57D25E9
:1024A00084B2ED0004E00CF093F9284600F006F841
:1024B0002146641EA4B20029F5D170BD70B5044652
:1024C000114810490068FDF793FE104D6043052345
:1024D00000246E420E49401E09E0A8420AD38D61D5
:1024E0004D610B610A69D203FCD50C61801900288B
:1024F000F3D170BD886148610B610869C003FCD5E8
:102500000C6170BD40420F00D8050004FFFFFF00C2
:1025100000E000E010B50548006802F01FF904482B
:10252000416A02041143416210BD0000E009000449
:102530000040084010B51B2002F004FE0248402273
:10254000C1791143C17110BD3E0D000410B5064C98
:1025500002E000BF0CF03CF92069C007F9D1E06847
:1025600002210843E06010BD0004004038B5044675
:102570000D46684602F05CFB154900229820504346
:1025800040188368002B08D08030407BA04204D1E3
:10259000009802F053FB012038BD521CEED00022FF
:1025A0009820504340188068002806D0521CF7D06D
:1025B000009802F043FB022038BD98204243501897
:1025C0008D210C542860009802F038FB002038BDA3
:1025D000C833000410B50BF0B7FE00F019FC134C23
:1025E0000020207560756060A060E0602061206060
:1025F00022460F49042000F0B3FB002815D10C48F7
:102600000068416861600169A160C169E160806A38
:10261000206107482146143841608160C160016132
:1026200001F054F9206802F068FA10BDE0090004D6
:102630000C030004FEB56D4C0E462146203100917E
:102640006B496B4B01915B1E05465F7C0120617DF0
:10265000330002F069FD192B0E2C482B2B2B2B2B52
:10266000727F9DA4ABB2B9C02B2B2B6B898E2BC76D
:102670002B00002565750098057465775C4C641E19
:10268000F80706D0657469215A48FDF735FE04F055
:102690005BFBA07A41080120E076019849000577AC
:1026A0002A0A4277F9200140A1720020FEBD0029CC
:1026B000FCD000980125057400244E4E27462320A7
:1026C00060438019C770002103F05AFC641CE4B217
:1026D000032CF4D34648F921401E4574827A0A40FF
:1026E000121D8272E1E70029E0D00099097C0029DF
:1026F000DCD03F4D6D1EF80707D0002068746921BB
:102700003C48FDF7F9FD04F01FFB0122EA76019930
:102710000020087748776277A87AF9210840801C62
:10272000A872E87940210843E871BEE7131EBDD0C6
:102730000029BBD01878E076B7E7002AB6D001218F
:10274000617510782A4AA075521E937A00200B43B7
:102750009372FEBD0029FCD01288110AD2B204295E
:10276000F7D26018C275A0E7111EF2D0A07D0870E4
:102770009BE7002AEDD01188080A042806D2090A2E
:1027800009022018C07D014311808EE70520FEBD9F
:10279000002AFCD01146284600F0CCFCFEBD002AE1
:1027A000FCD01146284600F0B7FCFEBD002AFCD044
:1027B0001146284600F022FDFEBD002AFCD011463D
:1027C000284600F0BFFCFEBD002AFCD0114628467A
:1027D00000F0D6FCFEBD002AFCD01146284600F0D1
:1027E000CDFCFEBD02F07EFA5FE70000E0090004C8
:1027F0003F0D00048D2D0004F8B5154604461E4615
:1028000000686A46062100F0CDFC68460078012881
:1028100003D0002801D00520F8BD012022460C324B
:1028200030602A601521206800F0DEF9F8BDFFB5A0
:1028300085B004460520039048880E46050AC7B2B5
:1028400004AA0621206800F0ADFC6846007C01283F
:1028500006D0002804D0022802D0039809B0F0BDA9
:10286000F0880190012D0AD0022D0CD0032D10D03C
:10287000212D16D0222D1BD0232D20D029E06A46F1
:102880000B21206822E0684607726A460C21206806
:102890001CE069468F72B08808816A460D21206865
:1028A00014E03079694608726A460E2120680DE00E
:1028B0003079694608726A460F21206806E0694649
:1028C0000F72307948726A461021206800F08CF946
:1028D0000390079800990160089801990160BCE78E
:1028E000FFB581B0154604461E46052700686A46B6
:1028F000062100F057FC68460078002802D03846D0
:1029000005B0F0BD012022460C3230602A600298EA
:10291000162100790002A081206800F065F9A189E4
:10292000A181EDE7FFB583B00446052000901D4668
:1029300002AA0621206800F035FC6846007A0128CA
:1029400004D0002802D0009807B0F0BD04982746B4
:1029500000780226C1060C37002907D0C006C00E39
:10296000002101280AD002280CD01CE03A4604219C
:10297000206800F017FC0090207B10E00020009001
:10298000A1810FE004986A4600791071D18001AAF4
:102990000521206800F006FC6A460090D088800778
:1029A000800FA0812E6005980760CCE7F8B50D4632
:1029B0000446052600686A46062100F0F3FB6846D7
:1029C000007803280ED0012805D0022803D0002863
:1029D00001D03046F8BDA878694608706A460721DC
:1029E00020680CE000220721206802F093F80028FC
:1029F000F0D10120694608706A460621206802F07D
:102A000089F8F8BD7CB50C4605460020694608707B
:102A1000052601AA0621286800F0C4FB694608794A
:102A2000012801D000283AD16078032801D1012083
:102A300008702078C10604D0C006C00E02280ED04F
:102A40002DE0608801282AD16A460D21286802F00D
:102A500061F86A461421286800F0C6F81EE0608814
:102A600000281CD1A08801070CD1694609780029EB
:102A700004D0C1B2286802F084F803E0C1B228682B
:102A800002F0C8F8684600780028286802D0221DA5
:102A9000052101E0221D062100F0C2F8064630465D
:102AA0007CBD38B50D46044600686A46062100F034
:102AB00079FB68460078012803D0002801D0052062
:102AC00038BD0020694608706A460621206802F079
:102AD00021F86888002807D10120694608706A46F5
:102AE0000621206802F016F8AA1C0321206800F0D5
:102AF00097F8AA1C0921206800F076F838BD38B58F
:102B00000D46044600686A46062100F04BFB684605
:102B10000078002801D0052038BD2879A978000266
:102B200008432246A0810C3215460421206800F09B
:102B300077F82A460A21206800F056F838BDFFB51C
:102B400081B015460E460446052700686A460621F0
:102B500000F028FB68460078002802D0384605B00F
:102B6000F0BDB088A08122460C32206814460821AE
:102B700000F018FB2C60049902220A60EFE70000C5
:102B800038B504460D46684602F052F81549002251
:102B900010010B58002B08D04018807BA04204D1B4
:102BA000009802F04BF8012038BD521CF0D00022F2
:102BB00010010858002806D0521CF9D0009802F0E5
:102BC0003DF8022038BD100140189101054A847378
:102BD0004032891881602860009802F02FF80020A8
:102BE00038BD0000C0490004F8B50C46154606463D
:102BF000694600F097F8002811D1012C08D1304621
:102C0000009900F021FA02213046009A00F008F8FD
:102C100000982A4640682146436830469847F8BDE8
:102C2000F7B582B004990127002904D0694600F065
:102C300079F8002802D0042005B0F0BD0024154D1D
:102C400021E020460C235843002103461268083334
:102C5000D3581B790E017619367BB3420DD1001D76
:102C60000901491910588B68049A03999847052857
:102C7000E2D0002805D1002703E0491CC9B202298F
:102C8000E8D3641CE4B200984268107AA042D8D815
:102C90003846D1E720EA002038B5054600246846CA
:102CA00001F0C6FF0D4821014258002A0ED00A1833
:102CB000927BAA420AD100222301C2500818426026
:102CC0008273009801F0BAFF002038BD641CEAD07E
:102CD000009801F0B3FF042038BD0000C049000493
:102CE000F8B505460E460024684601F0A1FF0C48E1
:102CF0002201815800290BD01118897BA94207D1E4
:102D0000210140583060009801F098FF0020F8BD84
:102D1000641CEDD0009801F091FF0420F8BD000084
:102D2000C0490004F8B505460E460024684601F087
:102D30007FFF0A4A20011058A84207D120018018BD
:102D40003060009801F07AFF0020F8BD641CF1D0DB
:102D5000009801F073FF0420F8BD0000C049000492
:102D6000F7B584B006980C4600281BD0002C19D06B
:102D70006068002816D069460498FFF701FF002814
:102D800011D1009A20495460049800F00BFD019085
:102D900000280AD00098006800F080F90498FFF736
:102DA0007BFF2EE0042007B0F0BD0025174F1FE089
:102DB0000C202E4646433046083000240390301D38
:102DC000029000980399406823010068DA1941587D
:102DD000127B0979914205D10299FB584218811959
:102DE00004989847641CE4B2022CEAD36D1CEDB23F
:102DF00000984068007AA842DAD8009801680698DE
:102E000001600198CFE70000E92B002020EA0020B4
:102E100010B50220FDF712FC01460220FDF74AFB27
:102E200003480168012212069143016010BD0000B1
:102E300000050040002805D0C368002B04D05B6962
:102E4000806818470320704706207047F7B58AB09E
:102E5000002702970397486805260D46401C7DD041
:102E6000002AFCD00092946804AA06210A9800F077
:102E700099F9287A002873D0686808286ED12868E4
:102E80000028ECD0418861808188A180C288E280DE
:102E9000417861700078207043069B0F11D00121AA
:102EA000002A35D0020633D4820616D508A8069724
:102EB00001700594E088079005AA0A98FFF7B0FE14
:102EC00018E0484889004558002D41D003AB02AABC
:102ED00021460098A84706463AE0400638D508A89B
:102EE000069701700594E088079005AA13210A98B7
:102EF000FFF77AFE0600079803900698029027D104
:102F00000246E38800210A9801F0F1FD0DB0F0BD02
:102F100082060BD508A8069701700594E0880790F3
:102F200005AA01210A98FFF77BFE0CE040060FD5A9
:102F300008A8069701700594E088079005AA132158
:102F40000A98FFF751FE06460798039006980290EC
:102F500003A902A80023019100903BE040E0FFE7B5
:102F60006846007C032817D06868002838D0E088BD
:102F7000002835D02078010632D4810616D528687D
:102F8000069008A8077005946868079005AA0121B3
:102F90000A98FFF745FE17E0607803AB81001148FF
:102FA00002AA455821460098A84718E040060CD5CB
:102FB0002868069008A8077005946868079005AA15
:102FC00013210A98FFF710FE064603A902A8012361
:102FD00001910090324621460A9800F005F8064615
:102FE000304693E700E8002070B50C460546012105
:102FF000049E0598052A16D0E18802688A4200D905
:103000000160036800212846326801F07CFD002839
:1030100008D12178C90905D000231A461946284647
:1030200001F065FD70BD20784206920F07D00006C2
:1030300005D4E088002802D0002B00D10021C9016E
:10304000284601F09EFD70BD30B585B0054612489A
:10305000039102900120694608710024CC70802001
:1030600088704020088002AA284600F00DFC002845
:103070000DD16846847002AA6946284600F004FC17
:10308000040006D08021284600F01BF8204605B039
:1030900030BD0020FBE700004D2E002010B50400DD
:1030A0000DD0E068002805D0A26841681046884726
:1030B0000020E060204600F021F8002010BD032031
:1030C00010BD73B56946097904460D072D0FCE0969
:1030D00000280FD001AA0321FFF7ACFE052D0BD26B
:1030E000690031430C230022594309194A618A615E
:1030F0000A777CBD03207CBD04207CBD38B5044626
:10310000684601F095FD0020A0608034607300984F
:1031100001F094FD002038BD087A002801D0052078
:103120007047034808606D20486000207047000029
:1031300080000004024808601220486000207047A8
:1031400040000004087A0922002807D0012807D08F
:10315000022808D0032809D005207047064807E058
:103160000548193004E00448323001E002484B3091
:1031700005C1002070470000920000040520704740
:10318000087A032809D8064A800012580A60044ABF
:10319000103A105848600020704705207047000022
:1031A0000001000470B504460120002A0CD0254619
:1031B000891E80350B0001F0B7FF0C090B13150DAC
:1031C0001017080808081C08042070BD0F210CE027
:1031D00010210AE00020A97B0DE00020297B0AE0F5
:1031E000062102E0072100E009212046FFF722FE28
:1031F00070BDE97B0020117070BD0000F0B58D7AC4
:10320000144F002D0DD000200E89BB6803220C2422
:10321000444308341C5BB44207D1032D09D22A462B
:1032200007E03868086078680FE0401C0006000E70
:10323000EDD0032A0CD00C2460431B5892009B58FD
:103240000B60BB68001D1858805848600020F0BD16
:103250000520F0BD1001000410B5040009D000F0F5
:103260000AF801460020206060602073A0730846C1
:1032700010BD032010BD70B50546806801210028EF
:1032800001D0002409E0084670BD8068A100415CBF
:103290002868FFF716FF0146641CA8680279A2425D
:1032A000F3DC0020A860EEE7F0B50446007B0025C3
:1032B000012185B0002857D06268926853799842FE
:1032C00052D81268002A4FD0C00008381618327839
:1032D0000020944607E00C27034672687B43D75CC6
:1032E000032F07D0401C8445F5DC002D3CD0002680
:1032F000A56036E01E1D0020B446361D965DB6461C
:103300000CE06746D6590701F65DA77BBE4204D1A3
:103310006546555900012D1802E0401C8645F0DC39
:10332000DB1CD05C6073E0E700206B461871A96875
:10333000B0000A5C9A70831CA968401CCF5A6B4687
:103340001F80085CD870D00901D0094800E0094806
:103350000394029002AA1946206800F095FA0146EB
:10336000761C2879B042DFDC084605B0F0BD0000CD
:1033700091350020BB350020FEB504460120002A0F
:103380000AD0002C08D000260B0001F0CDFE070665
:1033900061070C1D314906000320FEBD26736674CB
:1033A000A674A660FEBD616815460029FAD02A7889
:1033B000217B8A42F6D0002902D02046FFF75BFF2E
:1033C00028782073A6730FE061680029EAD011887D
:1033D000627BCDB2090A8A42E4D1A17BA942E1D045
:1033E0002046FFF748FFA5732046FFF75DFFFEBDAF
:1033F00061680029FBD0A1680029F8D01646002595
:1034000009E08968AA008A5C31788A4202D1206882
:1034100001F0B7FB6D1CA1680A79AA42F1DCFEBD80
:1034200061680029FBD0A1680029F8D01646002564
:1034300009E08968AA008A5C31788A4202D1206852
:1034400001F0E8FB6D1CA1680A79AA42F1DCFEBD1F
:10345000116815460A78D206D20E012AF7D10B79E7
:10346000627B9342F3D14E7822460F32501C3300D8
:1034700001F05AFE0C5F07181C5F5F5F5F5F254A13
:10348000585F48886946000A087228686A4680784A
:103490004872286800798872A868019060680321E2
:1034A00003681FE060681646036803E0616802462F
:1034B0000B6806460421204698476E60FEBD48888A
:1034C0006946000A0872286880784872286800797E
:1034D0008872287B00280CD0A868019060680A4692
:1034E0000368092120469847009969600199A960FD
:1034F000FEBD68680090A868019060680A4603688D
:10350000062120469847FEBD4888000AE07360689F
:103510000721036820469847296889880029F2D046
:1035200000BFFEBD89782174616802460B680821DE
:10353000E7E70520FEBD0000F8B51646024600206C
:10354000124B0F460546142141435958002915D006
:10355000401C0428F7D3022000280ED12146104633
:10356000FFF7BEFB002808D1206800280BD0676059
:103570002573FF21A17328463460F8BD1421484308
:10358000C4182846E8E70320F8BD00008034000492
:10359000104610B5012200280DD000234374436863
:1035A000002B06D01B68002B03D00A460121984748
:1035B0000246104610BD032010BD104610B5012272
:1035C00000280DD0002383744368002B06D01B68AD
:1035D000002B03D00A46022198470246104610BD30
:1035E000032010BD00B501200B0001F09DFD0A1D58
:1035F000061D1C1D1D1D1D1D111D0C49C968497D81
:10360000002911D00A490020C8700A49C8700AE090
:10361000107A022807D1907A022804D15068012834
:1036200001D105481060002000BD0000F802000430
:103630007E0300047A030004EC03000400B50120BB
:103640000B0001F071FD020C020C05494968497D2F
:10365000002904D00349002048700349487000BD88
:10366000F80200047E0300047A03000410B5012070
:10367000124C0B0001F058FD0A1406141F1414110B
:10368000141415140D498968497D002908D00C4986
:10369000002088700B4988700DE00B4A617811702A
:1036A00010BD107A022806D1907A022803D1506802
:1036B000022800D11460002010BD0000F8020004B0
:1036C0007E0300047A030004EC030004F8B5012033
:1036D0000826254D254C0B0001F026FD0A0B060B94
:1036E0000C0B0B220B0B380B21490969497D002972
:1036F00037D1F8BD107A032833D1907A032830D11E
:1037000050685A282DD11560A879052801D00628BF
:1037100027D12878012824D1A07A3043A07220E054
:10372000107A03281DD1907A03281AD150685A289C
:1037300017D1A77A380714D45A220E490A48FCF741
:10374000C2FD012028703743A7720AE0107A0328CF
:1037500007D1907A032804D150685A2801D105482E
:1037600010600020F8BD0000E40C00043E0D0004D1
:10377000F80200048009000410B5002806D0447C3B
:10378000002C05D000214174022010BD032010BD83
:10379000006801F0B8F90028F9D000BF00BF00BFF1
:1037A00000BF10BDF8B5002514460F46064600952B
:1037B000002A26D06946FEF7D9FE002822D10098BB
:1037C00007618030467305730574002108460C229A
:1037D0005043009A491C82185561009A82189561DD
:1037E000009A801805770A29F0D3009806270C3034
:1037F000042E08D0052E06D0062E04D0072E05D1A3
:1038000001E00320F8BD1F4900270160002F04D00C
:103810000098FFF773FC3846F8BD0099C868002887
:1038200020D00268002A22D04268002A1FD0826875
:10383000002A1CD0C268002A19D00269002A16D0BA
:103840004069002813D021600099C8680A460368BF
:1038500008323046984706000ED00098FFF71EFC4D
:1038600025600DE00846FFF749FC0620F8BD084634
:10387000FFF744FC0720F8BD0098022180308173D7
:103880003046F8BD34E8002070B5002819D0002972
:1038900019D0002A17D08C7823071B0FE509052BB8
:1038A00011D25B002B430C256B431B1814685C6121
:1038B00052689A6100221A770A460221FFF7BAFA83
:1038C00070BD032070BD042070BD000038B519A084
:1038D0000068009068460078002340B2FF2400286A
:1038E0000CDB82081449920051180D688207D20E31
:1038F0009440A54393401D430D600EE00107090F5E
:1039000008398A080D4992005118CD698207D20EF4
:103910009440A54393401D43CD610146803107D0BB
:10392000002805DBC106C90E012088400449086053
:1039300038BD00001C00000000E400E000ED00E0E5
:1039400000E100E0F3B585B00F46059D3807C10ED4
:1039500080203840C0090E183146284600F032FC5D
:103960000446A08AC004C00F00287DD00020049027
:10397000FF2029304059406A0121B1400840002809
:103980000CD001200490FF2029304059406A0121C9
:10399000B1408843FF2129314959486200BF60691D
:1039A0004002800F022808D103214905606988433D
:1039B000012149054018606104E00321490560695F
:1039C00088436061FF202930405940690121B1409E
:1039D0000843FF2129314959486100BFFF202930A0
:1039E000405940690121B14008400028F6D1606982
:1039F0004002800F00282AD0FF21293149598969C6
:103A00000122B2401140F140C9050122D205114006
:103A100008466169914301436161114660698843C9
:103A200061690902C90F01225140C905D20511403F
:103A300008436061FF2029304059806961690902AB
:103A4000C90FB1400843FF21293149598861606994
:103A50004002800F0028A2D10498002812D0012033
:103A6000B040FF21293100E042E049590862FF20BF
:103A700029304059406A0121B1400843FF212931D2
:103A8000495948620020C04302902068019068466E
:103A90000773002141730121090360698843606154
:103AA000FF212931495989690122B2401140F14071
:103AB000C9050122D20511400846616991430143BD
:103AC0006161FF212931495989690122B2401140C0
:103AD000F14009060122120611400846616991432E
:103AE00001436161FF212531485901A900F0F0FF30
:103AF000002007B0F0BD0000F7B584B01446049D67
:103B000001200390049D002D02D1032007B0F0BDD9
:103B1000FF202530405902900598030001F004FB76
:103B2000140B17232B343D4650748788DFDFDFBF2B
:103B3000D4DDDEDFB5DFFF202930405900680121E8
:103B400009040843FF21293149590860C8E0FF20D2
:103B5000293040590068012109048843FF21293197
:103B600049590860BCE0002C04D02146284600F0EA
:103B700020F90390B4E0002C05D027783946284678
:103B800000F0DCF80390ABE0002C05D02778394634
:103B9000284600F00CFA0390A2E0002C05D027780C
:103BA0003946284600F041FA039099E0002C06D0EF
:103BB00002988030C07B40002080002003908FE07E
:103BC000002C20D00094009C20780007000F0528CE
:103BD00018D2009800780007C20E00980078802361
:103BE0001840C0091118284600F0ECFA019001981D
:103BF000808A0005C00F0121484048400099488054
:103C00000020039000BF6BE0002C0FD02778FF202E
:103C1000293040590668F609F6017806400E064339
:103C2000FF202930405906600020039058E057E0FB
:103C3000FF20293040590068012149020843FF2133
:103C4000293149590860FF20293040590068012175
:103C500049048843FF2129314959086000BFFF20EA
:103C60002930405900680121490408400028F6D154
:103C7000FF202930405900681B490840FF212931A5
:103C800049590860002003902AE0FF20293040595C
:103C90000068012109050840000D207020E0002681
:103CA0000AE080203043C1B2284600F047F8F1B264
:103CB000284600F043F8761C052EF2D3284600F083
:103CC00063FC002003900BE0002C05D0FF20333074
:103CD000405D20700020039002E001E000E000BFA2
:103CE00000BF039812E70000FFFDFFF038B505465E
:103CF0002C46002D01D1032038BD0E49FF2029306C
:103D0000005901620021FF20293000594162002042
:103D100000906A4608212046FFF7EEFEFF2029307A
:103D20000059006804490840FF21293109590860F9
:103D30000020E1E7FFFF00C07FFFFEFFF8B505466A
:103D40000F463807C10E80203840C0090E18314692
:103D5000284600F037FA044639462846FFF7F2FDB8
:103D600000BF012000280BD07010002806D0A08AC8
:103D70004205520D2846216900F011FE0020206105
:103D8000FF202930405981690120B0408143FF2044
:103D900029304059816101218907FF202D30405988
:103DA000F200104301606069C00AC0026061002037
:103DB000F8BDFEB506460D46A8780007C10EA878E6
:103DC00080221040C0090F183946304600F0FAF939
:103DD00004462888019000206061FF202930805926
:103DE00080690121B9408843FF21293189598861BF
:103DF0006069C00AC00201994905490D0843606124
:103E0000012149036069884329794903012252034A
:103E10001140084360610321490660698843E978DD
:103E2000490603225206114008436061E8780128E0
:103E300008D11F2109046069884301210904401841
:103E4000606104E01F210904606988436061606962
:103E5000C002C00E8006FF212D318959FA0011439E
:103E60000860A8780007000F00280ED1A8788021EC
:103E70000840002815D170688002010CFF202D3009
:103E800080590422104301600BE06069C002C00E3B
:103E90008006FF212D318959FA0011430422114374
:103EA0000860781000280ED01F210904606988433B
:103EB0006169C902C90E0422114309041F221204B8
:103EC000114008436061002020617810002802D171
:103ED0003068206110E000BF012000280CD030467F
:103EE000019900F005FD00900098002801D10C20F8
:103EF000FEBD0098206100BF0020F9E7FFB583B048
:103F000005460C461E460C9F01A800F091FE0121BB
:103F100009036069884340186061E068C019E06087
:103F2000002002900298410020461830405AC00AF2
:103F3000C0027905490D084302994A00214618310B
:103F40008852002E00D1AE686069C002C00E8006A3
:103F50000121C907401839040843B102090C014383
:103F6000FF202D304059059AD2001043029AD20703
:103F7000520F104301606069C002C00E0421084066
:103F800000280ED01F210904606988436169C902B5
:103F9000C90E0422914309041F2212041140084350
:103FA0006061019800F04AFE002007B0F0BDF8B54E
:103FB00006460D462807C10E80202840C0090F186C
:103FC0003946304600F0FEF804460121C902606916
:103FD0008843401860618904FF202D308059FA0021
:103FE000104301602807000F002818D01F21090482
:103FF000606988436169C902C90E0422114309043A
:104000001F22120411400843606101214907FF206B
:104010002D308059FA0010430422104301602946D4
:104020003046FFF78FFC0020F8BDF8B506460F4676
:104030003807C10E80203840C0090D182946304687
:1040400000F0C0F804460121C9026069884360613C
:10405000FF202D308059E9000843006801214907FD
:104060008843FF212D318959EA0011430860380740
:10407000000F002820D0FF202D308059E900084390
:10408000042108430168012040078143FF202D30AF
:104090008059EA0010430422104301601F210904E3
:1040A000606988436169C902C90E114309041F226E
:1040B0001204114008436061A08A4004C00F002828
:1040C00009D0012189036069884360612A4621463D
:1040D000304600F011FB0020F8BDFFB583B00C4660
:1040E00000200190E16820684618E1686068471A7E
:1040F000A08A4005400DB84202D2A08A47057F0D34
:104100000198410020461830405A0121C9028843D5
:1041100001994A002146183188520598C507ED0FCC
:10412000002F3ED0B006800E00280AD1B10D8905BF
:104130000398FF300130806AC068800D800581429D
:104140002FD00198410020461830405A0121C90261
:104150008843411801984200204618308152206956
:104160000290002D19D0B007800F00280CD1002537
:1041700005E0A8003158AA00029881506D1CF81C77
:104180008008A842F5D80BE0002503E0715D029895
:1041900041556D1CBD42F9D302E0A08A47057F0D51
:1041A000029E0398FF302130407C002808D133461E
:1041B00000972146059A0398FFF7A0FE07B0F0BDCF
:1041C0000120FBE702460A2905D81C204843134674
:1041D0000C33C01870470020FCE70000FEB5054610
:1041E0000E46174600243548006801903348001DEC
:1041F00000680090042D04DB281F012801DA002844
:1042000001D00620FEBD281FFF21453148432C491F
:104210004418281F80012B4940182060281F800166
:10422000294940186060281F800128494018A06073
:10423000281F800069460958FF202D300151281F92
:10424000800001A90958FF2029300151FF20313099
:10425000055500BF0120002808D0281F052189022C
:1042600048431B494118FF2035300151002506E025
:1042700000212046FF3039304155681CC5B20A2D57
:10428000F6DBFF2029300059006812490840FF2161
:10429000293109590860204600F076F9FF202930BD
:1042A0000059006880210843FF212931095908601D
:1042B000FF20253006513C600020A3E718EA0020CB
:1042C000000700040049000440490004804900043C
:1042D000003500047FF7FEFF3EB504460121FF20B4
:1042E000323001550021401C015500200090102162
:1042F0006846017200200190002168464172FF214A
:1043000025310859694600F0E3FB3EBD3EB5044641
:1043100000200090122168460172002001900021C7
:1043200068464172FF2125310859694600F0D0FBEB
:1043300000203EBD3EB50446002000901121684695
:10434000017200200190002168464172FF21253151
:104350000859694600F0BCFB00203EBDF0B587B0AF
:1043600004460E46174631462046FFF72BFF05460A
:10437000002F06D1A88AC004C00F002801D107B0C1
:10438000F0BD002F59D00820059060680490A88ADD
:10439000C004C00F002810D00121090368698843B8
:1043A0006861FF202D3000590068C00FC007002849
:1043B00003D000212046FFF7C5FAA08FC004C00F2C
:1043C000002810D001210903E06B8843E063FF203F
:1043D0002D3000598068C00FC007002803D080210D
:1043E0002046FFF7AFFAFF202D3000590068052165
:1043F00049078843FF212D3109590860FF202D30DE
:104400000059082108430068052149078843FF2116
:104410002D3109590822114308600321FF2029305A
:1044200000590162FF2029300059006851010843FA
:10443000FF2129310959086063E000200390FF2023
:104440002D300059F1004058C00FC007002800D09F
:1044500095E7002332462946204600F0F3F8039002
:10446000A9686868401A02900398002810D0A88AAA
:104470004105490D0398FBF7BBFE002908D10298BE
:10448000002805D032462946204600F035F976E767
:1044900001210903686988436861A8680590286854
:1044A0000490F007C00F00282BD00398002828D0D4
:1044B000A88A4105490D0398FBF79AFE002920D1EF
:1044C000701000280FD1606801900198C088696859
:1044D000884216D900200346012229460090204632
:1044E000FFF70CFD4BE7A88A8004C00F002808D016
:1044F000002003463246294600902046FFF7FEFC86
:104500003DE769464F767010F107090E084369468A
:104510000876FF212531085904A900F0D9FA00BF17
:104520002DE7F8B504460D4616461F463B46324673
:104530002946204600F001F8F8BDFFB583B00646D5
:104540000D46174602962807C10E80202840C00954
:104550000818019001990298FFF734FE0446A08ADA
:10456000C004C00F002802D0012007B0F0BD002019
:10457000A0602760069860600020E0602146019AF4
:10458000029800F0B9F8F0E738B50446002500BFFE
:1045900006E00021FF202D300059AA0081506D1C3B
:1045A000042DF6D3042507E001218907FF202D30D3
:1045B0000059AA0081506D1C142DF5D300200090E5
:1045C0006A4608212046FFF797FAFF202D3001594F
:1045D000001F00598160FF20293000596168C160C7
:1045E0000021FF20293000598161FF202930005926
:1045F0004161FF2029300059C1610749FF2029305E
:1046000000590162FF202930005941620021FF203A
:104610003230015538BD0000FFFF00C03EB50446F2
:1046200000200090182168460172002001900021AE
:1046300068464172FF2125310859694600F048FA61
:104640003EBD0000FFB50C460025029EF607F60FA2
:10465000002E14D1009EFF360136B66AB768029E5E
:10466000F600BE19AF00F059224E0640300C6E0025
:1046700027461837BE5B7605760D301A05E06E00CA
:1046800027461837BE5B7005400D6E002746183769
:10469000BE5B3605F60F002E27D0002825D0029EDF
:1046A000F607F60F002E20D1A7682668F2192369B5
:1046B0009607B60F002E11D1002104E08E009E59FE
:1046C0008F00D651491C86088E42F7D8890002E037
:1046D0005E5C5654491C8142FAD306E0002102E098
:1046E0005E5C5654491C8142FAD3A6683618A6600F
:1046F00004B0F0BD0000FF03F8B506460C461546B1
:104700000127684600F094FAA08A0005C00F00282F
:104710000ED06810002805D0B9036069884340189E
:10472000606100270127009800F088FA3846F8BD3C
:10473000009800F083FAE1686068884204D86068F5
:10474000002801D00020F2E700232A462146304607
:10475000FFF7C3FC07463846E9E70000FEB5074609
:104760000197002F00D1FEBD01988468FF202930F9
:104770000059066AFF20293000590662FF202930BF
:104780000059406A0640FF202930005940680F2137
:10479000C90208400090F00FC00700282CD0FF206D
:1047A000293000590568FF21013128468843054614
:1047B0000F2000062843FF212931095908600120F4
:1047C00080062840002802D02046FFF785FD012002
:1047D0004006284000280FD0FF20293000590068EB
:1047E000012149040840002803D02046FFF7A2FD1C
:1047F00002E02046FFF78AFDB0B200284ED0002527
:10480000F007C00F00283AD0FF2029300059006877
:10481000FF2101310840002831D00225208C0005FD
:10482000C00F002804D1A08F0005C00F002820D0A1
:10483000FF202D3000590068052149078843FF21DA
:104840002D3109590860FF202D30005908210843F7
:104850000068052149078843FF212D3109590822A5
:10486000114308601102206A88432062E06B88438C
:10487000E063012200212046009BFFF76FFD0BE063
:104880000120A8403040002805D0E9B2002220468F
:10489000009BFFF763FD6D1C0A2DF1D301208007FB
:1048A000304000281DD02046FFF7B8FEFDF720FB62
:1048B000012014E00C49095C002905D00A49095C73
:1048C000491E094A115408E00849095C002904D02E
:1048D0000021064A1154044A1154411CC8B203284D
:1048E000E8DD00BF3FE700007A0300047E03000418
:1048F000F8B507460C4620463F3084090025684637
:1049000000F096F900BF002617E0502D04D3009860
:1049100000F094F90020F8BDE9083846FF3039303E
:10492000405C6A07520F012191400840002801D0E5
:104930006D1C04E06D1C701CC6B2A642E5D300BF1E
:10494000A642E0D3A64225D3002617E0281B8019F3
:10495000C1083846FF303930405C291B89194A07A5
:10496000520F01219140C9B20843291B8919CA0875
:104970003946FF3139318854701CC6B2A642E5D39E
:10498000009800F05BF9FF203530C059291B8901E0
:104990004018C0E7009800F051F90020BBE7F7B5D8
:1049A00082B004460E46FF2035300059B04207D889
:1049B000FF2035300059052189024018B04201D846
:1049C00005B0F0BDFF2135310959701AC117890EA4
:1049D00009188F1101A800F02BF9002513E07819B0
:1049E000C1082046FF303930415C78194207520F28
:1049F0000120904081437819C2082046FF303930A9
:104A00008154681CC5B204983F308009A842E6D89A
:104A1000019800F013F900BFD2E7FEB50B7A01222E
:104A20001D072D0FDE090024102B1DD0112B3BD0AC
:104A3000122B3DD0182B3FD0052D47D26B003343AE
:104A40000C256B431B185D69002D3FD00A6800924E
:104A50004A6801924A7A6D462A72497A00292FD013
:104A6000047728210C542CE0064635460120803579
:104A70002874EC7300220E213046FEF7DBF9022089
:104A8000A8732C7300210C20484380194461846171
:104A9000491C04770A29F6D30022336901213046E4
:104AA000984722462C7411E00022022103690BE092
:104AB00000220321036907E000221821036903E0B3
:104AC0001C779A695B692946984702461046FEBDE5
:104AD00010B5002907D0002805D00269002A04D0AB
:104AE000FFF79BFF10BD032010BD012010BD10B5C6
:104AF0000907090F00F053F810BD10B50022114648
:104B0000FEF798F910BD090710B5090F803100F0C4
:104B100046F810BD70B504462546C91E01208035F3
:104B20000B0000F001FB0C071818090E18182729B4
:104B30001D211F18112120E0002A0CD0002011781F
:104B400008E0A97B032907D0002A04D011780020AF
:104B500029730321A97370BD22468C3208210CE011
:104B60000A210AE00B2108E0002AF4D01178002085
:104B7000E97370BD0C2100E00D212046FEF75AF9C3
:104B800070BD13B5694609790907090F052904D2D3
:104B900001AA0421FEF74EF91CBD04201CBDFFB57F
:104BA0000A070D46120FC90981B01F4604460028A6
:104BB0000DD0E06800282AD0500008430C2148435B
:104BC0000619307F002804D0022005B0F0BD032074
:104BD000FBE7684600F02CF801203077009800F0E1
:104BE0002DF82806E168A06801D58C6800E0CC6843
:104BF0003B462946039AA047040009D0684600F0C6
:104C000017F800203077009800F018F800E006242C
:104C10002046DAE713B5694609790907090F05291E
:104C200004D201AA0521FEF705F91CBD04201CBD14
:104C3000EFF3108172B6016072B6704780F310888E
:104C40007047000010B572B61B2000F07BFA1B20E5
:104C5000FCF750F9094801680122D20611430160AE
:104C60000748FBF7F3FB074801684122120691430E
:104C700001600548FCF720FE10BD000080060040E2
:104C80000011100000050040001BB70010B5002007
:104C900009F098FB1249FF20086309F049FA02F075
:104CA00071FC09F069FD02F05FFB09F0CBFA02F03C
:104CB00025FC09F09DF802F0C9FE07F08BFA09F017
:104CC00043FB02F099FE02F03FF89620FDF7E6FB69
:104CD00008F0AAF801220721002002F065FB10BDB0
:104CE000C001004010B511484168491C416041684D
:104CF000CA070146096902D00268002A03D0426847
:104D0000D20708D00FE0012202604868022318434E
:104D100048604A6007E00268002A04D000224A6026
:104D20000260FBF757FF002010BD0000DC05000407
:104D300010B502F053FE07F0AFF90F480021C17122
:104D400008F028F90D4800F05DF909F06FFA00222B
:104D50000721104602F028FB1120FCF7C1F81220B1
:104D6000FCF7BEF80648416804229143416041685F
:104D700040221143416010BD5E0D000400C00040A0
:104D800040000240FEB5454E717F344600250620A6
:104D90002034002904D07577217C002900D02074AC
:104DA000217C0B0000F0C0F90614040D1565757820
:104DB0003B48807AC0076FD0012009F063F80220D9
:104DC00067E03748417CC90702D103212174C571CE
:104DD000FEBDFFF7ADFFF07E002821D035773148CA
:104DE00000900025FF20093001902F4800680746F9
:104DF000FCF758FA002238462C4B1146FCF772FAA1
:104E0000A900684643583846DA432946FCF7C6F9F4
:104E10000121284609F04EFC6D1CEDB2022DE4D3B1
:104E2000012009F0CFFAFFF70DFFFDF78FFB0022FD
:104E30000A213068FFF76EFE194D30BF09F0C8FC3B
:104E400062B6E8790028F8D0FFF720FFF07E00284E
:104E50001ED01748FCF7A8F91648FCF77FFC022083
:104E600000F094F9042000F091F9052000F08EF98B
:104E70000EE0317F00290CD03577F07E0525002823
:104E80000AD000220C213068FFF744FE002803D02E
:104E900004202074FEBDFFE72574FBE7E009000451
:104EA0003E0D000403016C60D4F1002099E600205F
:104EB00000200040004000400248024A0168526859
:104EC00001481047C005000400E0004010B5002173
:104ED000016000F017F808494000085A0122010A51
:104EE000022905D28240880004494018026410BD9E
:104EF00082400348826110BD2EF400200002004071
:104F00000000044010B50146064A00208300D35833
:104F10008B4202D0401CF9D001E0002801D0C046ED
:104F2000C04610BD30F4002001224260002900D0AC
:104F30000847704710B5FFF7E5FF0C494000085AD5
:104F40000122010A022905D282408800084940183E
:104F5000026202E0824007484261012106480905D9
:104F6000016307490548486010BD00002EF4002089
:104F7000000200400000044000060040294F0020CD
:104F8000C0050004F8B51C4615460E460746FFF757
:104F9000B9FF054A8100545004490856FBF7AAFF9F
:104FA000F00728433860F8BDC00500042CF4002049
:104FB00070B50C4D2C680C20044060070BD5286898
:104FC0004008400028600421284600F00DF82868B9
:104FD000012108432860200703D50821284600F056
:104FE00003F870BD00C0004010B5026808239A4362
:104FF0004C0701D50424A243090700D51A430260D7
:1050000010BD000010B5016849084900016000F0BA
:1050100029F808494000085A0122010A022905D24C
:105020008240880004494018026410BD8240034851
:10503000826110BDB0F30020000200400000044077
:1050400010B500280AD00121017000214170817043
:10505000C170034A42608260C16010BDC046C04654
:10506000FFFFFF0010B503460121074A002084001E
:1050700014599C4202D0401C8842F8D3884201D384
:10508000C046C04610BD0000B4F3002070B50C004F
:1050900005460ED0FFF7E6FF1B494000085A0122E3
:1050A000010A022907D2824088001849401802628A
:1050B00004E0C046C0468240154842612846FFF7DA
:1050C000D1FF1149800008310858FCF7B5FC207861
:1050D0006178C007C907C00F890F0843A178C907C5
:1050E000C90E0843E178C907890E084361680902BF
:1050F000090AA961A1680902090A6960A1898905EB
:10510000890D6961286070BDB0F300200002004085
:1051100000000440EFF3108172B6AA22826055228B
:10512000826081F31088704730B47446641E25781D
:10513000641CAB4200D21D46635D5B00E31830BCCB
:1051400018470000002805DBC106C90E0120884071
:10515000014908607047000080E200E0002805DB9C
:10516000C106C90E0120884001490860704700004F
:1051700080E200E0002805DBC106C90E012088405E
:10518000014908607047000080E200E0002809DB68
:10519000C106C90E0120884003490860BFF34F8F44
:1051A000BFF36F8F7047000080E100E08307FF22AC
:1051B000DB0E9A408907090E9940002808DB830816
:1051C00009489B001818036893430B43036070471A
:1051D0000007000F0838830804489B001818C369AB
:1051E00093430B43C361704700E400E000ED00E02F
:1051F000BFF34F8F04490348C860BFF34F8F00BF10
:10520000FDE700000400FA0500ED00E002E008C838
:10521000121F08C1002AFAD170477047002001E030
:1052200001C1121F002AFBD170470000F8B50746E4
:105230001E460C461546104602F02EFD00284CD0A6
:10524000284600F087F9002847D12C204443234802
:1052500024182570280A6070E670A770A11D002030
:10526000FBF75FF821460E310020FBF75AF8214684
:1052700012310020FBF755F8214616310020FBF7CC
:1052800050F821461A310020FBF74BF8002020711E
:105290001248214621380A31807E0E46FBF741F83C
:1052A000010000D101203146FBF73BF80126667171
:1052B000284601F035FE21462331FBF732F8284617
:1052C00001F05CFE21462731FBF72BF821461E3109
:1052D0000020FBF726F82034E672F8BDA41B00047A
:1052E00010B50F480024C4720E48FF21C078653104
:1052F00048430D49D02241180C48AB31FAF7E3FF7F
:105300000A4A00204E3A06214143545489184C70F1
:105310008C70401CCC70C0B24C710D28F3D310BD02
:1053200024030004710D0004950D0004660A0004B6
:1053300070B52C2148430949441812342046FAF725
:10534000E6FF05463F2805D0681C2146FAF7E9FF2D
:10535000284670BD21460020F8E70000A41B000489
:1053600001462C225143044A002089184979012919
:1053700000D1012070470000A41B000470B5574CF9
:1053800090231D2200212046FCF7DDF900221D217B
:10539000104601F0CFFF90231E2200212046FCF78B
:1053A000D2F900221E21104601F0C4FF90230822EA
:1053B00000212046FCF7C7F900220821104601F021
:1053C000B9FF9023162200212046FCF7BCF90022E9
:1053D0001621104601F0AEFF902303220121204642
:1053E000FCF7B1F900220321012001F0A3FF002204
:1053F000902311462046FCF7A6F9002211461046DC
:1054000001F098FF9023152200212046FCF79BF91C
:1054100000221521104601F08DFF90231222002159
:105420002046FCF790F900221221104601F082FF7D
:105430009023132200212046FCF785F90022132136
:10544000104601F077FF9023012200212046FCF74F
:105450007AF900220121104601F06CFF9023072207
:1054600001212046FCF76FF901220721104601F0C7
:1054700061FF9023082201212046FCF764F90022F5
:105480000821012001F056FFFF2581352B46062219
:1054900000212046FCF757F900220621104601F0B2
:1054A00049FF2B46052200212046FCF74CF900223B
:1054B0000521104601F03EFF9023072200212046DF
:1054C000FCF741F901220721002001F033FF0122FE
:1054D0000721002001F068FF70BD000000100040AF
:1054E00070B51A491A4DCC680020062102464A437D
:1054F000AB5C990711D551198E78002E0DD023463B
:10550000C3404A78DB07DB0F9A4202D0761E8E70CA
:105510000DE0CA78521CCA7009E02146C140C90793
:105520000AD051194A78002A01D0DA070AD0401C63
:1055300040B20B28D9DB70BD51194A78012AF6D048
:10554000DA07F4D08A78521C8A70F0E7240300044A
:10555000180A0004F0B5154E2B235B01F318002246
:105560005C7E1B7E07462502104611461D4318E04F
:105570000E234B439C19637824781B0223435C045D
:10558000640CBC4207D10E22514389194978C909DC
:1055900000D00120F0BD5B0401D1521C92B2491C25
:1055A00089B2AB188B42E3D8F0BD0000231600048B
:1055B000F8B5364A06460020537E127E1B02054689
:1055C000014613435CE00E220C465443304AA418B3
:1055D0006278277812023A4357047F0CB74249D1C8
:1055E0000E2041432A480818C17880780E020643ED
:1055F0001AD0201DFAF78BFE81B2300200F0AAF912
:105600000646201DFAF783FEE178A27809021143CD
:105610000902401801786A4611704078507010886D
:10562000864201D1012501E0002D2CD0607A217A3B
:1056300006020E4327D020460A300746FAF767FED7
:1056400081B2300200F086F905463846FAF75FFE6F
:10565000617A227A090211430902401801786A46E8
:105660001170407850701088854201D101250AE000
:10567000002508E0520401D1401C80B2491C89B2C7
:105680001A188A429FD82846F8BD0000831B0004E0
:105690002316000470B5214CE079012837D1E08948
:1056A0001F49401C80B2E0814A7E0B7E11021943E3
:1056B00000261C4D884202D92AE0401CA081A08906
:1056C0000E21414349194A780B78110219434904C4
:1056D00001D16428F1D380B20E21484340194178AA
:1056E0000278080210434004400CFFF761FF0028D5
:1056F0000DD1A0890E214843401941780278080253
:1057000010434004400C2082E6710320A07170BD5C
:10571000E6712682E681A6810220F7E730040004C4
:10572000831B00042316000470B50E4C2B2252017B
:10573000A218537E0021127E1B02084613430CE080
:105740000E2242431219557816782A023243520427
:1057500001D1491C89B2401C80B25A188242EFD84C
:1057600070BD00002316000410B503480078C00780
:1057700001D008F09BF910BD202D0004F8B51F4B97
:105780001E49DA780624CD7862431D491D4F1E4E0E
:10579000D418002813D0487820713946601D04229F
:1057A0000A31FAF790FD38786072FF206530454382
:1057B000A819B978A030817279784172F8BDFF20BC
:1057C00065304543AD192020405D0E4608702946DE
:1057D0008A311F22B01CFAF776FD207970700948D3
:1057E000611D04220A30FAF76EFD607A3870A03528
:1057F000A87AB870687A7870F8BD0000710D00045E
:10580000580C00046C030004950D000410B5417899
:1058100023225143064A02238A1800210478147077
:10582000491CC9B2401C521C9942F7D310BD00005C
:105830008D2D000410B51249FF240A7A6534521EDA
:10584000D2B262430F4C8B7A121923246043101892
:1058500020300371CA7A02740A7BC2734A7B827158
:105860008A7BC271CA7B02720A7C4272FF228272F8
:105870004B7CC3728B7C0373C97C4173827310BDF4
:10588000E40C0004950D0004FEB516460C460546D2
:1058900002F01CFE3060002855D12846E16802F075
:1058A000DAFD306000284ED12846E268616802F0D7
:1058B00093FD3060002846D12846E268A16802F0D6
:1058C000A4FD306000283ED16168029168680190B3
:1058D000081A698A0091FAF78BFC87B20299E0688E
:1058E00009180198081A401E0099FAF781FC014630
:1058F0001548FA03026047816A8AC91B491C426144
:1059000081811149E86801F0F5F8306000281AD16A
:105910000D4861680160A1684160A18989B2018177
:105920002A8A826122690262AA8A82832A6A12789A
:10593000C283064801600649012008600249E86800
:1059400001F002F93060FEBDA0330004FC05000444
:105950000006000410B503460A480CE01C78020A51
:105960005440220962400002140360405401604028
:10597000504080B25B1C0A46491E89B2002AEDD114
:1059800010BD0000FFFF000010B5034610460CE0FC
:105990001C78020A5440220962400002140360404D
:1059A00054016040504080B25B1C0A46491E89B2D7
:1059B000002AEDD110BD0000F1B58CB000200B9095
:1059C0000C992C204143FD480D182E461E363046BA
:1059D000FAF79DFC0746301F0390FAF798FCF74949
:1059E000B41C2139079129460E31069108310591E1
:1059F000091F049108390091874275D00C98FFF770
:105A000097FC0C998A01EE495718395C0C98ED4ABD
:105A1000C000801801900C98D03A000108908018BE
:105A20000290401C0A901046A13809900B00FFF725
:105A30007BFB16FE0C4196AABCDEFEFDFEFCFEFEC4
:105A4000FEFEFEFEFBFAF9F8F7FE02250498FAF7CF
:105A50005EFCC15DDC484219127A914201D10121FC
:105A60000B916D1CEDB2082DF0D3022508E0D6484D
:105A70004019007A00280AD06D1CEDB2082D02D220
:105A80000B980028F3D00C98FFF752FC52E10498D1
:105A9000FAF73DFCCC49C05D491908720199012211
:105AA0004855CA48017811430170ECE7FAF739FC10
:105AB0000DB0F0BD022102910498FAF728FCC25DF6
:105AC000C14802994018007A82420ED1BE49029A1A
:105AD000002089180872029A01998854BB48012253
